{
  "contractName": "CroDefiSwapFactory",
  "abi": [
    {
      "inputs": [
        {
          "internalType": "address",
          "name": "_feeSetter",
          "type": "address"
        },
        {
          "internalType": "uint256",
          "name": "_totalFeeBasisPoint",
          "type": "uint256"
        },
        {
          "internalType": "uint256",
          "name": "_feeToBasisPoint",
          "type": "uint256"
        }
      ],
      "payable": false,
      "stateMutability": "nonpayable",
      "type": "constructor"
    },
    {
      "anonymous": false,
      "inputs": [
        {
          "indexed": false,
          "internalType": "address",
          "name": "latestFeeSetter",
          "type": "address"
        },
        {
          "indexed": false,
          "internalType": "address",
          "name": "previousFeeSetter",
          "type": "address"
        }
      ],
      "name": "FeeSetterUpdated",
      "type": "event"
    },
    {
      "anonymous": false,
      "inputs": [
        {
          "indexed": false,
          "internalType": "uint256",
          "name": "latestFeeToBasisPoint",
          "type": "uint256"
        },
        {
          "indexed": false,
          "internalType": "uint256",
          "name": "previousFeeToBasisPoint",
          "type": "uint256"
        }
      ],
      "name": "FeeToBasisPointUpdated",
      "type": "event"
    },
    {
      "anonymous": false,
      "inputs": [
        {
          "indexed": false,
          "internalType": "address",
          "name": "latestFeeTo",
          "type": "address"
        },
        {
          "indexed": false,
          "internalType": "address",
          "name": "previousFeeTo",
          "type": "address"
        }
      ],
      "name": "FeeToUpdated",
      "type": "event"
    },
    {
      "anonymous": false,
      "inputs": [
        {
          "indexed": true,
          "internalType": "address",
          "name": "token0",
          "type": "address"
        },
        {
          "indexed": true,
          "internalType": "address",
          "name": "token1",
          "type": "address"
        },
        {
          "indexed": false,
          "internalType": "address",
          "name": "pair",
          "type": "address"
        },
        {
          "indexed": false,
          "internalType": "uint256",
          "name": "",
          "type": "uint256"
        }
      ],
      "name": "PairCreated",
      "type": "event"
    },
    {
      "anonymous": false,
      "inputs": [
        {
          "indexed": false,
          "internalType": "uint256",
          "name": "latestTotalFeeBasisPoint",
          "type": "uint256"
        },
        {
          "indexed": false,
          "internalType": "uint256",
          "name": "previousTotalFeeBasisPoint",
          "type": "uint256"
        }
      ],
      "name": "TotalFeeBasisPointUpdated",
      "type": "event"
    },
    {
      "constant": true,
      "inputs": [],
      "name": "MAX_EVER_ALLOWED_TOTAL_FEE_BASIS_POINT",
      "outputs": [
        {
          "internalType": "uint256",
          "name": "",
          "type": "uint256"
        }
      ],
      "payable": false,
      "stateMutability": "view",
      "type": "function"
    },
    {
      "constant": true,
      "inputs": [
        {
          "internalType": "uint256",
          "name": "",
          "type": "uint256"
        }
      ],
      "name": "allPairs",
      "outputs": [
        {
          "internalType": "address",
          "name": "",
          "type": "address"
        }
      ],
      "payable": false,
      "stateMutability": "view",
      "type": "function"
    },
    {
      "constant": true,
      "inputs": [],
      "name": "feeSetter",
      "outputs": [
        {
          "internalType": "address",
          "name": "",
          "type": "address"
        }
      ],
      "payable": false,
      "stateMutability": "view",
      "type": "function"
    },
    {
      "constant": true,
      "inputs": [],
      "name": "feeTo",
      "outputs": [
        {
          "internalType": "address",
          "name": "",
          "type": "address"
        }
      ],
      "payable": false,
      "stateMutability": "view",
      "type": "function"
    },
    {
      "constant": true,
      "inputs": [],
      "name": "feeToBasisPoint",
      "outputs": [
        {
          "internalType": "uint256",
          "name": "",
          "type": "uint256"
        }
      ],
      "payable": false,
      "stateMutability": "view",
      "type": "function"
    },
    {
      "constant": true,
      "inputs": [
        {
          "internalType": "address",
          "name": "",
          "type": "address"
        },
        {
          "internalType": "address",
          "name": "",
          "type": "address"
        }
      ],
      "name": "getPair",
      "outputs": [
        {
          "internalType": "address",
          "name": "",
          "type": "address"
        }
      ],
      "payable": false,
      "stateMutability": "view",
      "type": "function"
    },
    {
      "constant": true,
      "inputs": [],
      "name": "totalFeeBasisPoint",
      "outputs": [
        {
          "internalType": "uint256",
          "name": "",
          "type": "uint256"
        }
      ],
      "payable": false,
      "stateMutability": "view",
      "type": "function"
    },
    {
      "constant": true,
      "inputs": [],
      "name": "allPairsLength",
      "outputs": [
        {
          "internalType": "uint256",
          "name": "",
          "type": "uint256"
        }
      ],
      "payable": false,
      "stateMutability": "view",
      "type": "function"
    },
    {
      "constant": false,
      "inputs": [
        {
          "internalType": "address",
          "name": "tokenA",
          "type": "address"
        },
        {
          "internalType": "address",
          "name": "tokenB",
          "type": "address"
        }
      ],
      "name": "createPair",
      "outputs": [
        {
          "internalType": "address",
          "name": "pair",
          "type": "address"
        }
      ],
      "payable": false,
      "stateMutability": "nonpayable",
      "type": "function"
    },
    {
      "constant": false,
      "inputs": [
        {
          "internalType": "address",
          "name": "_feeTo",
          "type": "address"
        }
      ],
      "name": "setFeeTo",
      "outputs": [],
      "payable": false,
      "stateMutability": "nonpayable",
      "type": "function"
    },
    {
      "constant": false,
      "inputs": [
        {
          "internalType": "address",
          "name": "_feeSetter",
          "type": "address"
        }
      ],
      "name": "setFeeSetter",
      "outputs": [],
      "payable": false,
      "stateMutability": "nonpayable",
      "type": "function"
    },
    {
      "constant": false,
      "inputs": [
        {
          "internalType": "uint256",
          "name": "_feeToBasisPoint",
          "type": "uint256"
        }
      ],
      "name": "setFeeToBasisPoint",
      "outputs": [],
      "payable": false,
      "stateMutability": "nonpayable",
      "type": "function"
    },
    {
      "constant": false,
      "inputs": [
        {
          "internalType": "uint256",
          "name": "_totalFeeBasisPoint",
          "type": "uint256"
        }
      ],
      "name": "setTotalFeeBasisPoint",
      "outputs": [],
      "payable": false,
      "stateMutability": "nonpayable",
      "type": "function"
    }
  ],
  "bytecode": "0x6080604052603260045534801561001557600080fd5b50604051613e36380380613e368339818101604052606081101561003857600080fd5b5080516020820151604090920151909190808210156100885760405162461bcd60e51b8152600401808060200182810382526046815260200180613df06046913960600191505060405180910390fd5b600180546001600160a01b0319166001600160a01b039490941693909317909255600355600255613d32806100be6000396000f3fe608060405234801561001057600080fd5b50600436106100df5760003560e01c806387cf3ef41161008c578063c9c6539611610066578063c9c65396146101d3578063e380f7281461020e578063e6a4390514610216578063f46901ed14610251576100df565b806387cf3ef414610190578063b19805af14610198578063bb44dff3146101cb576100df565b8063574f2ba3116100bd578063574f2ba31461015157806372e5493d1461016b5780638252c4ed14610173576100df565b8063017e7e58146100e4578063143669ad146101155780631e3dd18b14610134575b600080fd5b6100ec610284565b6040805173ffffffffffffffffffffffffffffffffffffffff9092168252519081900360200190f35b6101326004803603602081101561012b57600080fd5b50356102a0565b005b6100ec6004803603602081101561014a57600080fd5b503561040d565b610159610441565b60408051918252519081900360200190f35b610159610447565b6101326004803603602081101561018957600080fd5b503561044d565b6100ec61055f565b610132600480360360208110156101ae57600080fd5b503573ffffffffffffffffffffffffffffffffffffffff1661057b565b610159610672565b6100ec600480360360408110156101e957600080fd5b5073ffffffffffffffffffffffffffffffffffffffff81358116916020013516610678565b610159610acb565b6100ec6004803603604081101561022c57600080fd5b5073ffffffffffffffffffffffffffffffffffffffff81358116916020013516610ad1565b6101326004803603602081101561026757600080fd5b503573ffffffffffffffffffffffffffffffffffffffff16610b04565b60005473ffffffffffffffffffffffffffffffffffffffff1681565b60015473ffffffffffffffffffffffffffffffffffffffff163314610310576040517f08c379a000000000000000000000000000000000000000000000000000000000815260040180806020018281038252604a815260200180613b03604a913960600191505060405180910390fd5b60025481101561036b576040517f08c379a000000000000000000000000000000000000000000000000000000000815260040180806020018281038252605f815260200180613c9f605f913960600191505060405180910390fd5b6004548111156103c6576040517f08c379a0000000000000000000000000000000000000000000000000000000008152600401808060200182810382526069815260200180613bad6069913960800191505060405180910390fd5b6003805490829055604080518381526020810183905281517f0848a37db6722d2184f41f400b94deabf111bc1e91cabe803c3d77c55d6c2156929181900390910190a15050565b6006818154811061041a57fe5b60009182526020909120015473ffffffffffffffffffffffffffffffffffffffff16905081565b60065490565b60045481565b60015473ffffffffffffffffffffffffffffffffffffffff1633146104bd576040517f08c379a000000000000000000000000000000000000000000000000000000000815260040180806020018281038252604a815260200180613b03604a913960600191505060405180910390fd5b600354811115610518576040517f08c379a0000000000000000000000000000000000000000000000000000000008152600401808060200182810382526060815260200180613b4d6060913960600191505060405180910390fd5b6002805490829055604080518381526020810183905281517fb77bbff2aeb4499c58b9cc772626516a974fb6e0974f0c5b25974b28876328c4929181900390910190a15050565b60015473ffffffffffffffffffffffffffffffffffffffff1681565b60015473ffffffffffffffffffffffffffffffffffffffff1633146105eb576040517f08c379a0000000000000000000000000000000000000000000000000000000008152600401808060200182810382526049815260200180613c566049913960600191505060405180910390fd5b6001805473ffffffffffffffffffffffffffffffffffffffff8381167fffffffffffffffffffffffff000000000000000000000000000000000000000083161792839055604080519382168452911660208301819052815190927f83b887657b0e2cbbed6d7b9468d78fe27ce257d950e1c7e36572b3a24f82e41c92908290030190a15050565b60025481565b60008173ffffffffffffffffffffffffffffffffffffffff168373ffffffffffffffffffffffffffffffffffffffff16141561071557604080517f08c379a000000000000000000000000000000000000000000000000000000000815260206004820181905260248201527f43726f44656669537761703a204944454e544943414c5f414444524553534553604482015290519081900360640190fd5b6000808373ffffffffffffffffffffffffffffffffffffffff168573ffffffffffffffffffffffffffffffffffffffff1610610752578385610755565b84845b909250905073ffffffffffffffffffffffffffffffffffffffff82166107dc57604080517f08c379a000000000000000000000000000000000000000000000000000000000815260206004820152601960248201527f43726f44656669537761703a205a45524f5f4144445245535300000000000000604482015290519081900360640190fd5b73ffffffffffffffffffffffffffffffffffffffff82811660009081526005602090815260408083208585168452909152902054161561087d57604080517f08c379a000000000000000000000000000000000000000000000000000000000815260206004820152601860248201527f43726f44656669537761703a20504149525f4558495354530000000000000000604482015290519081900360640190fd5b60606040518060200161088f90610bfb565b6020820181038252601f19601f82011660405250905060008383604051602001808373ffffffffffffffffffffffffffffffffffffffff1673ffffffffffffffffffffffffffffffffffffffff1660601b81526014018273ffffffffffffffffffffffffffffffffffffffff1673ffffffffffffffffffffffffffffffffffffffff1660601b815260140192505050604051602081830303815290604052805190602001209050808251602084016000f5604080517f485cc95500000000000000000000000000000000000000000000000000000000815273ffffffffffffffffffffffffffffffffffffffff8781166004830152868116602483015291519297509087169163485cc9559160448082019260009290919082900301818387803b1580156109bc57600080fd5b505af11580156109d0573d6000803e3d6000fd5b5050505073ffffffffffffffffffffffffffffffffffffffff84811660008181526005602081815260408084208987168086529083528185208054978d167fffffffffffffffffffffffff000000000000000000000000000000000000000098891681179091559383528185208686528352818520805488168517905560068054600181018255958190527ff652222313e28459528d920b65115c16c04f3efc82aaedc97be59f3f377c0d3f90950180549097168417909655925483519283529082015281517f0d3648bd0f6ba80134a33ba9275ac585d9d315f0ad8355cddefde31afa28d0e9929181900390910190a35050505092915050565b60035481565b600560209081526000928352604080842090915290825290205473ffffffffffffffffffffffffffffffffffffffff1681565b60015473ffffffffffffffffffffffffffffffffffffffff163314610b74576040517f08c379a0000000000000000000000000000000000000000000000000000000008152600401808060200182810382526040815260200180613c166040913960400191505060405180910390fd5b6000805473ffffffffffffffffffffffffffffffffffffffff8381167fffffffffffffffffffffffff000000000000000000000000000000000000000083161792839055604080519382168452911660208301819052815190927f8f93286d6f131e956d1aa672d3ecdc817f24efc20b223b0de5d591f454edc34792908290030190a15050565b612efa80610c098339019056fe60806040526001600c5534801561001557600080fd5b506040514690806052612ea88239604080519182900360520182208282018252600d83526c043524f2044656669205377617609c1b6020938401528151808301835260018152603160f81b908401528151808401919091527fa48bada1449373da82f0e667f132d2b1fd6cc7d50959f25c21df1ac50ad3f2c5818301527fc89efdaa54c0f20c7adf612882df0950f5a951637e0307cdcb4c672f298b8bc6606082015260808101949094523060a0808601919091528151808603909101815260c09094019052825192019190912060035550600580546001600160a01b03191633179055612da0806101086000396000f3fe608060405234801561001057600080fd5b50600436106101b95760003560e01c80636a627842116100f9578063ba9a7a5611610097578063d21220a711610071578063d21220a7146105da578063d505accf146105e2578063dd62ed3e14610640578063fff6cae91461067b576101b9565b8063ba9a7a5614610597578063bc25cf771461059f578063c45a0155146105d2576101b9565b80637ecebe00116100d35780637ecebe00146104d757806389afcb441461050a57806395d89b4114610556578063a9059cbb1461055e576101b9565b80636a6278421461046957806370a082311461049c5780637464fc3d146104cf576101b9565b806323b872dd116101665780633644e515116101405780633644e51514610416578063485cc9551461041e5780635909c0d5146104595780635a3d549314610461576101b9565b806323b872dd146103ad57806330adf81f146103f0578063313ce567146103f8576101b9565b8063095ea7b311610197578063095ea7b3146103155780630dfe16811461036257806318160ddd14610393576101b9565b8063022c0d9f146101be57806306fdde03146102595780630902f1ac146102d6575b600080fd5b610257600480360360808110156101d457600080fd5b81359160208101359173ffffffffffffffffffffffffffffffffffffffff604083013516919081019060808101606082013564010000000081111561021857600080fd5b82018360208201111561022a57600080fd5b8035906020019184600183028401116401000000008311171561024c57600080fd5b509092509050610683565b005b610261610def565b6040805160208082528351818301528351919283929083019185019080838360005b8381101561029b578181015183820152602001610283565b50505050905090810190601f1680156102c85780820380516001836020036101000a031916815260200191505b509250505060405180910390f35b6102de610e28565b604080516dffffffffffffffffffffffffffff948516815292909316602083015263ffffffff168183015290519081900360600190f35b61034e6004803603604081101561032b57600080fd5b5073ffffffffffffffffffffffffffffffffffffffff8135169060200135610e7d565b604080519115158252519081900360200190f35b61036a610e94565b6040805173ffffffffffffffffffffffffffffffffffffffff9092168252519081900360200190f35b61039b610eb0565b60408051918252519081900360200190f35b61034e600480360360608110156103c357600080fd5b5073ffffffffffffffffffffffffffffffffffffffff813581169160208101359091169060400135610eb6565b61039b610f95565b610400610fb9565b6040805160ff9092168252519081900360200190f35b61039b610fbe565b6102576004803603604081101561043457600080fd5b5073ffffffffffffffffffffffffffffffffffffffff81358116916020013516610fc4565b61039b61109d565b61039b6110a3565b61039b6004803603602081101561047f57600080fd5b503573ffffffffffffffffffffffffffffffffffffffff166110a9565b61039b600480360360208110156104b257600080fd5b503573ffffffffffffffffffffffffffffffffffffffff16611463565b61039b611475565b61039b600480360360208110156104ed57600080fd5b503573ffffffffffffffffffffffffffffffffffffffff1661147b565b61053d6004803603602081101561052057600080fd5b503573ffffffffffffffffffffffffffffffffffffffff1661148d565b6040805192835260208301919091528051918290030190f35b61026161192a565b61034e6004803603604081101561057457600080fd5b5073ffffffffffffffffffffffffffffffffffffffff8135169060200135611963565b61039b611970565b610257600480360360208110156105b557600080fd5b503573ffffffffffffffffffffffffffffffffffffffff16611976565b61036a611b6c565b61036a611b88565b610257600480360360e08110156105f857600080fd5b5073ffffffffffffffffffffffffffffffffffffffff813581169160208101359091169060408101359060608101359060ff6080820135169060a08101359060c00135611ba4565b61039b6004803603604081101561065657600080fd5b5073ffffffffffffffffffffffffffffffffffffffff81358116916020013516611e70565b610257611e8d565b600c546001146106f457604080517f08c379a000000000000000000000000000000000000000000000000000000000815260206004820152601360248201527f43726f44656669537761703a204c4f434b454400000000000000000000000000604482015290519081900360640190fd5b6000600c55841515806107075750600084115b61075c576040517f08c379a0000000000000000000000000000000000000000000000000000000008152600401808060200182810382526027815260200180612cc06027913960400191505060405180910390fd5b600080610767610e28565b5091509150816dffffffffffffffffffffffffffff168710801561079a5750806dffffffffffffffffffffffffffff1686105b6107ef576040517f08c379a0000000000000000000000000000000000000000000000000000000008152600401808060200182810382526023815260200180612d1f6023913960400191505060405180910390fd5b600654600754600091829173ffffffffffffffffffffffffffffffffffffffff91821691908116908916821480159061085457508073ffffffffffffffffffffffffffffffffffffffff168973ffffffffffffffffffffffffffffffffffffffff1614155b6108bf57604080517f08c379a000000000000000000000000000000000000000000000000000000000815260206004820152601760248201527f43726f44656669537761703a20494e56414c49445f544f000000000000000000604482015290519081900360640190fd5b8a156108d0576108d0828a8d612073565b89156108e1576108e1818a8c612073565b86156109c3578873ffffffffffffffffffffffffffffffffffffffff16636c813d29338d8d8c8c6040518663ffffffff1660e01b8152600401808673ffffffffffffffffffffffffffffffffffffffff1673ffffffffffffffffffffffffffffffffffffffff168152602001858152602001848152602001806020018281038252848482818152602001925080828437600081840152601f19601f8201169050808301925050509650505050505050600060405180830381600087803b1580156109aa57600080fd5b505af11580156109be573d6000803e3d6000fd5b505050505b604080517f70a08231000000000000000000000000000000000000000000000000000000008152306004820152905173ffffffffffffffffffffffffffffffffffffffff8416916370a08231916024808301926020929190829003018186803b158015610a2f57600080fd5b505afa158015610a43573d6000803e3d6000fd5b505050506040513d6020811015610a5957600080fd5b5051604080517f70a08231000000000000000000000000000000000000000000000000000000008152306004820152905191955073ffffffffffffffffffffffffffffffffffffffff8316916370a0823191602480820192602092909190829003018186803b158015610acb57600080fd5b505afa158015610adf573d6000803e3d6000fd5b505050506040513d6020811015610af557600080fd5b5051925060009150506dffffffffffffffffffffffffffff85168a90038311610b1f576000610b35565b89856dffffffffffffffffffffffffffff160383035b9050600089856dffffffffffffffffffffffffffff16038311610b59576000610b6f565b89856dffffffffffffffffffffffffffff160383035b90506000821180610b805750600081115b610bd5576040517f08c379a0000000000000000000000000000000000000000000000000000000008152600401808060200182810382526026815260200180612c706026913960400191505060405180910390fd5b600554604080517fe380f72800000000000000000000000000000000000000000000000000000000815290516127109260009273ffffffffffffffffffffffffffffffffffffffff9091169163e380f72891600480820192602092909190829003018186803b158015610c4757600080fd5b505afa158015610c5b573d6000803e3d6000fd5b505050506040513d6020811015610c7157600080fd5b505190506000610ca6610c8a868463ffffffff61228016565b610c9a898663ffffffff61228016565b9063ffffffff61230616565b90506000610ccd610cbd868563ffffffff61228016565b610c9a898763ffffffff61228016565b9050610d056002850a610cf96dffffffffffffffffffffffffffff8d8116908d1663ffffffff61228016565b9063ffffffff61228016565b610d15838363ffffffff61228016565b1015610d6c576040517f08c379a0000000000000000000000000000000000000000000000000000000008152600401808060200182810382526038815260200180612ce76038913960400191505060405180910390fd5b50505050610d7c84848888612378565b60408051838152602081018390528082018d9052606081018c9052905173ffffffffffffffffffffffffffffffffffffffff8b169133917fd78ad95fa46c994b6551d0da85fc275fe613ce37657fb8d5e3d130840159d8229181900360800190a350506001600c55505050505050505050565b6040518060400160405280600d81526020017f43524f204465666920537761700000000000000000000000000000000000000081525081565b6008546dffffffffffffffffffffffffffff808216926e0100000000000000000000000000008304909116917c0100000000000000000000000000000000000000000000000000000000900463ffffffff1690565b6000610e8a338484612634565b5060015b92915050565b60065473ffffffffffffffffffffffffffffffffffffffff1681565b60005481565b73ffffffffffffffffffffffffffffffffffffffff831660009081526002602090815260408083203384529091528120547fffffffffffffffffffffffffffffffffffffffffffffffffffffffffffffffff14610f805773ffffffffffffffffffffffffffffffffffffffff84166000908152600260209081526040808320338452909152902054610f4e908363ffffffff61230616565b73ffffffffffffffffffffffffffffffffffffffff851660009081526002602090815260408083203384529091529020555b610f8b8484846126a3565b5060019392505050565b7f6e71edae12b1b97f4d1f60370fef10105fa2faae0126114a169c64845d6126c981565b601281565b60035481565b60055473ffffffffffffffffffffffffffffffffffffffff16331461104a57604080517f08c379a000000000000000000000000000000000000000000000000000000000815260206004820152601660248201527f43726f44656669537761703a20464f5242494444454e00000000000000000000604482015290519081900360640190fd5b6006805473ffffffffffffffffffffffffffffffffffffffff9384167fffffffffffffffffffffffff00000000000000000000000000000000000000009182161790915560078054929093169116179055565b60095481565b600a5481565b6000600c5460011461111c57604080517f08c379a000000000000000000000000000000000000000000000000000000000815260206004820152601360248201527f43726f44656669537761703a204c4f434b454400000000000000000000000000604482015290519081900360640190fd5b6000600c8190558061112c610e28565b50600654604080517f70a08231000000000000000000000000000000000000000000000000000000008152306004820152905193955091935060009273ffffffffffffffffffffffffffffffffffffffff909116916370a08231916024808301926020929190829003018186803b1580156111a657600080fd5b505afa1580156111ba573d6000803e3d6000fd5b505050506040513d60208110156111d057600080fd5b5051600754604080517f70a08231000000000000000000000000000000000000000000000000000000008152306004820152905192935060009273ffffffffffffffffffffffffffffffffffffffff909216916370a0823191602480820192602092909190829003018186803b15801561124957600080fd5b505afa15801561125d573d6000803e3d6000fd5b505050506040513d602081101561127357600080fd5b505190506000611299836dffffffffffffffffffffffffffff871663ffffffff61230616565b905060006112bd836dffffffffffffffffffffffffffff871663ffffffff61230616565b905060006112cb8787612784565b60005490915080611308576112f46103e8610c9a6112ef878763ffffffff61228016565b6129b9565b985061130360006103e8612a0b565b611365565b6113626dffffffffffffffffffffffffffff891661132c868463ffffffff61228016565b8161133357fe5b046dffffffffffffffffffffffffffff8916611355868563ffffffff61228016565b8161135c57fe5b04612abb565b98505b600089116113be576040517f08c379a000000000000000000000000000000000000000000000000000000000815260040180806020018281038252602a815260200180612d42602a913960400191505060405180910390fd5b6113c88a8a612a0b565b6113d486868a8a612378565b811561141657600854611412906dffffffffffffffffffffffffffff808216916e01000000000000000000000000000090041663ffffffff61228016565b600b555b6040805185815260208101859052815133927f4c209b5fc8ad50758f13e2e1088ba56a560dff690a1c6fef26394f4c03821c4f928290030190a250506001600c5550949695505050505050565b60016020526000908152604090205481565b600b5481565b60046020526000908152604090205481565b600080600c5460011461150157604080517f08c379a000000000000000000000000000000000000000000000000000000000815260206004820152601360248201527f43726f44656669537761703a204c4f434b454400000000000000000000000000604482015290519081900360640190fd5b6000600c81905580611511610e28565b50600654600754604080517f70a08231000000000000000000000000000000000000000000000000000000008152306004820152905194965092945073ffffffffffffffffffffffffffffffffffffffff9182169391169160009184916370a08231916024808301926020929190829003018186803b15801561159357600080fd5b505afa1580156115a7573d6000803e3d6000fd5b505050506040513d60208110156115bd57600080fd5b5051604080517f70a08231000000000000000000000000000000000000000000000000000000008152306004820152905191925060009173ffffffffffffffffffffffffffffffffffffffff8516916370a08231916024808301926020929190829003018186803b15801561163157600080fd5b505afa158015611645573d6000803e3d6000fd5b505050506040513d602081101561165b57600080fd5b50513060009081526001602052604081205491925061167a8888612784565b60005490915080611691848763ffffffff61228016565b8161169857fe5b049a50806116ac848663ffffffff61228016565b816116b357fe5b04995060008b1180156116c6575060008a115b61171b576040517f08c379a000000000000000000000000000000000000000000000000000000000815260040180806020018281038252602a815260200180612c96602a913960400191505060405180910390fd5b6117253084612ad3565b611730878d8d612073565b61173b868d8c612073565b604080517f70a08231000000000000000000000000000000000000000000000000000000008152306004820152905173ffffffffffffffffffffffffffffffffffffffff8916916370a08231916024808301926020929190829003018186803b1580156117a757600080fd5b505afa1580156117bb573d6000803e3d6000fd5b505050506040513d60208110156117d157600080fd5b5051604080517f70a08231000000000000000000000000000000000000000000000000000000008152306004820152905191965073ffffffffffffffffffffffffffffffffffffffff8816916370a0823191602480820192602092909190829003018186803b15801561184357600080fd5b505afa158015611857573d6000803e3d6000fd5b505050506040513d602081101561186d57600080fd5b5051935061187d85858b8b612378565b81156118bf576008546118bb906dffffffffffffffffffffffffffff808216916e01000000000000000000000000000090041663ffffffff61228016565b600b555b604080518c8152602081018c9052815173ffffffffffffffffffffffffffffffffffffffff8f169233927fdccd412f0b1252819cb1fd330b93224ca42612892bb3f4f789976e6d81936496929081900390910190a35050505050505050506001600c81905550915091565b6040518060400160405280600881526020017f43524f2d5357415000000000000000000000000000000000000000000000000081525081565b6000610e8a3384846126a3565b6103e881565b600c546001146119e757604080517f08c379a000000000000000000000000000000000000000000000000000000000815260206004820152601360248201527f43726f44656669537761703a204c4f434b454400000000000000000000000000604482015290519081900360640190fd5b6000600c55600654600754600854604080517f70a08231000000000000000000000000000000000000000000000000000000008152306004820152905173ffffffffffffffffffffffffffffffffffffffff9485169490931692611ac39285928792611abe926dffffffffffffffffffffffffffff169185916370a0823191602480820192602092909190829003018186803b158015611a8657600080fd5b505afa158015611a9a573d6000803e3d6000fd5b505050506040513d6020811015611ab057600080fd5b50519063ffffffff61230616565b612073565b600854604080517f70a082310000000000000000000000000000000000000000000000000000000081523060048201529051611b629284928792611abe926e01000000000000000000000000000090046dffffffffffffffffffffffffffff169173ffffffffffffffffffffffffffffffffffffffff8616916370a0823191602480820192602092909190829003018186803b158015611a8657600080fd5b50506001600c5550565b60055473ffffffffffffffffffffffffffffffffffffffff1681565b60075473ffffffffffffffffffffffffffffffffffffffff1681565b42841015611c1357604080517f08c379a000000000000000000000000000000000000000000000000000000000815260206004820152601460248201527f43726f44656669537761703a2045585049524544000000000000000000000000604482015290519081900360640190fd5b60035473ffffffffffffffffffffffffffffffffffffffff80891660008181526004602090815260408083208054600180820190925582517f6e71edae12b1b97f4d1f60370fef10105fa2faae0126114a169c64845d6126c98186015280840196909652958d166060860152608085018c905260a085019590955260c08085018b90528151808603909101815260e0850182528051908301207f19010000000000000000000000000000000000000000000000000000000000006101008601526101028501969096526101228085019690965280518085039096018652610142840180825286519683019690962095839052610162840180825286905260ff89166101828501526101a284018890526101c28401879052519193926101e2808201937fffffffffffffffffffffffffffffffffffffffffffffffffffffffffffffffe081019281900390910190855afa158015611d74573d6000803e3d6000fd5b50506040517fffffffffffffffffffffffffffffffffffffffffffffffffffffffffffffffe0015191505073ffffffffffffffffffffffffffffffffffffffff811615801590611def57508873ffffffffffffffffffffffffffffffffffffffff168173ffffffffffffffffffffffffffffffffffffffff16145b611e5a57604080517f08c379a000000000000000000000000000000000000000000000000000000000815260206004820152601e60248201527f43726f44656669537761703a20494e56414c49445f5349474e41545552450000604482015290519081900360640190fd5b611e65898989612634565b505050505050505050565b600260209081526000928352604080842090915290825290205481565b600c54600114611efe57604080517f08c379a000000000000000000000000000000000000000000000000000000000815260206004820152601360248201527f43726f44656669537761703a204c4f434b454400000000000000000000000000604482015290519081900360640190fd5b6000600c55600654604080517f70a08231000000000000000000000000000000000000000000000000000000008152306004820152905161206c9273ffffffffffffffffffffffffffffffffffffffff16916370a08231916024808301926020929190829003018186803b158015611f7557600080fd5b505afa158015611f89573d6000803e3d6000fd5b505050506040513d6020811015611f9f57600080fd5b5051600754604080517f70a08231000000000000000000000000000000000000000000000000000000008152306004820152905173ffffffffffffffffffffffffffffffffffffffff909216916370a0823191602480820192602092909190829003018186803b15801561201257600080fd5b505afa158015612026573d6000803e3d6000fd5b505050506040513d602081101561203c57600080fd5b50516008546dffffffffffffffffffffffffffff808216916e010000000000000000000000000000900416612378565b6001600c55565b604080518082018252601981527f7472616e7366657228616464726573732c75696e743235362900000000000000602091820152815173ffffffffffffffffffffffffffffffffffffffff85811660248301526044808301869052845180840390910181526064909201845291810180517bffffffffffffffffffffffffffffffffffffffffffffffffffffffff167fa9059cbb000000000000000000000000000000000000000000000000000000001781529251815160009460609489169392918291908083835b6020831061217957805182527fffffffffffffffffffffffffffffffffffffffffffffffffffffffffffffffe0909201916020918201910161213c565b6001836020036101000a0380198251168184511680821785525050505050509050019150506000604051808303816000865af19150503d80600081146121db576040519150601f19603f3d011682016040523d82523d6000602084013e6121e0565b606091505b509150915081801561220e57508051158061220e575080806020019051602081101561220b57600080fd5b50515b61227957604080517f08c379a000000000000000000000000000000000000000000000000000000000815260206004820152601c60248201527f43726f44656669537761703a205452414e534645525f4641494c454400000000604482015290519081900360640190fd5b5050505050565b600081158061229b5750508082028282828161229857fe5b04145b610e8e57604080517f08c379a000000000000000000000000000000000000000000000000000000000815260206004820152601460248201527f64732d6d6174682d6d756c2d6f766572666c6f77000000000000000000000000604482015290519081900360640190fd5b80820382811115610e8e57604080517f08c379a000000000000000000000000000000000000000000000000000000000815260206004820152601560248201527f64732d6d6174682d7375622d756e646572666c6f770000000000000000000000604482015290519081900360640190fd5b6dffffffffffffffffffffffffffff84118015906123a457506dffffffffffffffffffffffffffff8311155b61240f57604080517f08c379a000000000000000000000000000000000000000000000000000000000815260206004820152601560248201527f43726f44656669537761703a204f564552464c4f570000000000000000000000604482015290519081900360640190fd5b60085463ffffffff428116917c01000000000000000000000000000000000000000000000000000000009004811682039081161580159061245f57506dffffffffffffffffffffffffffff841615155b801561247a57506dffffffffffffffffffffffffffff831615155b1561252a578063ffffffff166124bd8561249386612b98565b7bffffffffffffffffffffffffffffffffffffffffffffffffffffffff169063ffffffff612bbc16565b600980547bffffffffffffffffffffffffffffffffffffffffffffffffffffffff929092169290920201905563ffffffff81166124fd8461249387612b98565b600a80547bffffffffffffffffffffffffffffffffffffffffffffffffffffffff92909216929092020190555b600880547fffffffffffffffffffffffffffffffffffff0000000000000000000000000000166dffffffffffffffffffffffffffff888116919091177fffffffff0000000000000000000000000000ffffffffffffffffffffffffffff166e0100000000000000000000000000008883168102919091177bffffffffffffffffffffffffffffffffffffffffffffffffffffffff167c010000000000000000000000000000000000000000000000000000000063ffffffff871602179283905560408051848416815291909304909116602082015281517f1c411e9a96e071241c2f21f7726b17ae89e3cab4c78be50e062b03a9fffbbad1929181900390910190a1505050505050565b73ffffffffffffffffffffffffffffffffffffffff808416600081815260026020908152604080832094871680845294825291829020859055815185815291517f8c5be1e5ebec7d5bd14f71427d1e84f3dd0314c0f7b2291e5b200ac8c7c3b9259281900390910190a3505050565b73ffffffffffffffffffffffffffffffffffffffff83166000908152600160205260409020546126d9908263ffffffff61230616565b73ffffffffffffffffffffffffffffffffffffffff808516600090815260016020526040808220939093559084168152205461271b908263ffffffff612bfd16565b73ffffffffffffffffffffffffffffffffffffffff80841660008181526001602090815260409182902094909455805185815290519193928716927fddf252ad1be2c89b69c2b068fc378daa952ba7f163c4a11628f55a4df523b3ef92918290030190a3505050565b600080600560009054906101000a900473ffffffffffffffffffffffffffffffffffffffff1673ffffffffffffffffffffffffffffffffffffffff1663017e7e586040518163ffffffff1660e01b815260040160206040518083038186803b1580156127ef57600080fd5b505afa158015612803573d6000803e3d6000fd5b505050506040513d602081101561281957600080fd5b5051600554604080517fbb44dff3000000000000000000000000000000000000000000000000000000008152905192935060009273ffffffffffffffffffffffffffffffffffffffff9092169163bb44dff391600480820192602092909190829003018186803b15801561288c57600080fd5b505afa1580156128a0573d6000803e3d6000fd5b505050506040513d60208110156128b657600080fd5b5051905073ffffffffffffffffffffffffffffffffffffffff8216158015906128df5750600081115b600b5490935083156129a457801561299f5760006129196112ef6dffffffffffffffffffffffffffff89811690891663ffffffff61228016565b90506000612926836129b9565b90508082111561299c576000612954612945848463ffffffff61230616565b6000549063ffffffff61228016565b905060006129788361296c868963ffffffff61228016565b9063ffffffff612bfd16565b9050600081838161298557fe5b0490508015612998576129988882612a0b565b5050505b50505b6129b0565b80156129b0576000600b555b50505092915050565b600060038211156129fc575080600160028204015b818110156129f6578091506002818285816129e557fe5b0401816129ee57fe5b0490506129ce565b50612a06565b8115612a06575060015b919050565b600054612a1e908263ffffffff612bfd16565b600090815573ffffffffffffffffffffffffffffffffffffffff8316815260016020526040902054612a56908263ffffffff612bfd16565b73ffffffffffffffffffffffffffffffffffffffff831660008181526001602090815260408083209490945583518581529351929391927fddf252ad1be2c89b69c2b068fc378daa952ba7f163c4a11628f55a4df523b3ef9281900390910190a35050565b6000818310612aca5781612acc565b825b9392505050565b73ffffffffffffffffffffffffffffffffffffffff8216600090815260016020526040902054612b09908263ffffffff61230616565b73ffffffffffffffffffffffffffffffffffffffff831660009081526001602052604081209190915554612b43908263ffffffff61230616565b600090815560408051838152905173ffffffffffffffffffffffffffffffffffffffff8516917fddf252ad1be2c89b69c2b068fc378daa952ba7f163c4a11628f55a4df523b3ef919081900360200190a35050565b6dffffffffffffffffffffffffffff166e0100000000000000000000000000000290565b60006dffffffffffffffffffffffffffff82167bffffffffffffffffffffffffffffffffffffffffffffffffffffffff841681612bf557fe5b049392505050565b80820182811015610e8e57604080517f08c379a000000000000000000000000000000000000000000000000000000000815260206004820152601460248201527f64732d6d6174682d6164642d6f766572666c6f77000000000000000000000000604482015290519081900360640190fdfe43726f44656669537761703a20494e53554646494349454e545f494e5055545f414d4f554e5443726f44656669537761703a20494e53554646494349454e545f4c49515549444954595f4255524e454443726f44656669537761703a20494e53554646494349454e545f4f55545055545f414d4f554e5443726f44656669537761703a20436f6e7374616e742070726f6475637420666f726d756c6120636f6e646974696f6e206e6f74206d65742143726f44656669537761703a20494e53554646494349454e545f4c495155494449545943726f44656669537761703a20494e53554646494349454e545f4c49515549444954595f4d494e544544a265627a7a7231582072febb9060e99697097d30ad78467c0deb02dffa096d3e1e0b5f205a8bec5dfa64736f6c63430005100032454950373132446f6d61696e28737472696e67206e616d652c737472696e672076657273696f6e2c75696e7432353620636861696e49642c6164647265737320766572696679696e67436f6e74726163742943726f44656669537761703a20464f5242494444454e202d206f6e6c792063757272656e74206665655365747465722063616e2075706461746520666565546f4261736973506f696e7443726f44656669537761703a20464f5242494444454e202d205f666565546f4261736973506f696e74206e65656420746f20626520736d616c6c6572207468616e206f7220657175616c20746f20746f74616c4665654261736973506f696e7443726f44656669537761703a20464f5242494444454e202d205f746f74616c4665654261736973506f696e7420636f756c64206e6576657220676f206265796f6e64204d41585f455645525f414c4c4f5745445f544f54414c5f4645455f42415349535f504f494e5443726f44656669537761703a20464f5242494444454e202d206f6e6c792063757272656e74206665655365747465722063616e2075706461746520666565546f43726f44656669537761703a20464f5242494444454e202d206f6e6c792063757272656e74206665655365747465722063616e20757064617465206e6578742066656553657474657243726f44656669537761703a20464f5242494444454e202d205f746f74616c4665654261736973506f696e74206e65656420746f20626520626967676572207468616e206f7220657175616c20746f20666565546f4261736973506f696e74a265627a7a723158202438d13eecdd867ca485519fe3630a38dd47fcf6b74eb29ee809d4273b4e9a5264736f6c634300051000325f746f74616c4665654261736973506f696e742073686f756c64206265206c6172676572207468616e206f7220657175616c20746f205f666565546f4261736973506f696e74",
  "deployedBytecode": "0x608060405234801561001057600080fd5b50600436106100df5760003560e01c806387cf3ef41161008c578063c9c6539611610066578063c9c65396146101d3578063e380f7281461020e578063e6a4390514610216578063f46901ed14610251576100df565b806387cf3ef414610190578063b19805af14610198578063bb44dff3146101cb576100df565b8063574f2ba3116100bd578063574f2ba31461015157806372e5493d1461016b5780638252c4ed14610173576100df565b8063017e7e58146100e4578063143669ad146101155780631e3dd18b14610134575b600080fd5b6100ec610284565b6040805173ffffffffffffffffffffffffffffffffffffffff9092168252519081900360200190f35b6101326004803603602081101561012b57600080fd5b50356102a0565b005b6100ec6004803603602081101561014a57600080fd5b503561040d565b610159610441565b60408051918252519081900360200190f35b610159610447565b6101326004803603602081101561018957600080fd5b503561044d565b6100ec61055f565b610132600480360360208110156101ae57600080fd5b503573ffffffffffffffffffffffffffffffffffffffff1661057b565b610159610672565b6100ec600480360360408110156101e957600080fd5b5073ffffffffffffffffffffffffffffffffffffffff81358116916020013516610678565b610159610acb565b6100ec6004803603604081101561022c57600080fd5b5073ffffffffffffffffffffffffffffffffffffffff81358116916020013516610ad1565b6101326004803603602081101561026757600080fd5b503573ffffffffffffffffffffffffffffffffffffffff16610b04565b60005473ffffffffffffffffffffffffffffffffffffffff1681565b60015473ffffffffffffffffffffffffffffffffffffffff163314610310576040517f08c379a000000000000000000000000000000000000000000000000000000000815260040180806020018281038252604a815260200180613b03604a913960600191505060405180910390fd5b60025481101561036b576040517f08c379a000000000000000000000000000000000000000000000000000000000815260040180806020018281038252605f815260200180613c9f605f913960600191505060405180910390fd5b6004548111156103c6576040517f08c379a0000000000000000000000000000000000000000000000000000000008152600401808060200182810382526069815260200180613bad6069913960800191505060405180910390fd5b6003805490829055604080518381526020810183905281517f0848a37db6722d2184f41f400b94deabf111bc1e91cabe803c3d77c55d6c2156929181900390910190a15050565b6006818154811061041a57fe5b60009182526020909120015473ffffffffffffffffffffffffffffffffffffffff16905081565b60065490565b60045481565b60015473ffffffffffffffffffffffffffffffffffffffff1633146104bd576040517f08c379a000000000000000000000000000000000000000000000000000000000815260040180806020018281038252604a815260200180613b03604a913960600191505060405180910390fd5b600354811115610518576040517f08c379a0000000000000000000000000000000000000000000000000000000008152600401808060200182810382526060815260200180613b4d6060913960600191505060405180910390fd5b6002805490829055604080518381526020810183905281517fb77bbff2aeb4499c58b9cc772626516a974fb6e0974f0c5b25974b28876328c4929181900390910190a15050565b60015473ffffffffffffffffffffffffffffffffffffffff1681565b60015473ffffffffffffffffffffffffffffffffffffffff1633146105eb576040517f08c379a0000000000000000000000000000000000000000000000000000000008152600401808060200182810382526049815260200180613c566049913960600191505060405180910390fd5b6001805473ffffffffffffffffffffffffffffffffffffffff8381167fffffffffffffffffffffffff000000000000000000000000000000000000000083161792839055604080519382168452911660208301819052815190927f83b887657b0e2cbbed6d7b9468d78fe27ce257d950e1c7e36572b3a24f82e41c92908290030190a15050565b60025481565b60008173ffffffffffffffffffffffffffffffffffffffff168373ffffffffffffffffffffffffffffffffffffffff16141561071557604080517f08c379a000000000000000000000000000000000000000000000000000000000815260206004820181905260248201527f43726f44656669537761703a204944454e544943414c5f414444524553534553604482015290519081900360640190fd5b6000808373ffffffffffffffffffffffffffffffffffffffff168573ffffffffffffffffffffffffffffffffffffffff1610610752578385610755565b84845b909250905073ffffffffffffffffffffffffffffffffffffffff82166107dc57604080517f08c379a000000000000000000000000000000000000000000000000000000000815260206004820152601960248201527f43726f44656669537761703a205a45524f5f4144445245535300000000000000604482015290519081900360640190fd5b73ffffffffffffffffffffffffffffffffffffffff82811660009081526005602090815260408083208585168452909152902054161561087d57604080517f08c379a000000000000000000000000000000000000000000000000000000000815260206004820152601860248201527f43726f44656669537761703a20504149525f4558495354530000000000000000604482015290519081900360640190fd5b60606040518060200161088f90610bfb565b6020820181038252601f19601f82011660405250905060008383604051602001808373ffffffffffffffffffffffffffffffffffffffff1673ffffffffffffffffffffffffffffffffffffffff1660601b81526014018273ffffffffffffffffffffffffffffffffffffffff1673ffffffffffffffffffffffffffffffffffffffff1660601b815260140192505050604051602081830303815290604052805190602001209050808251602084016000f5604080517f485cc95500000000000000000000000000000000000000000000000000000000815273ffffffffffffffffffffffffffffffffffffffff8781166004830152868116602483015291519297509087169163485cc9559160448082019260009290919082900301818387803b1580156109bc57600080fd5b505af11580156109d0573d6000803e3d6000fd5b5050505073ffffffffffffffffffffffffffffffffffffffff84811660008181526005602081815260408084208987168086529083528185208054978d167fffffffffffffffffffffffff000000000000000000000000000000000000000098891681179091559383528185208686528352818520805488168517905560068054600181018255958190527ff652222313e28459528d920b65115c16c04f3efc82aaedc97be59f3f377c0d3f90950180549097168417909655925483519283529082015281517f0d3648bd0f6ba80134a33ba9275ac585d9d315f0ad8355cddefde31afa28d0e9929181900390910190a35050505092915050565b60035481565b600560209081526000928352604080842090915290825290205473ffffffffffffffffffffffffffffffffffffffff1681565b60015473ffffffffffffffffffffffffffffffffffffffff163314610b74576040517f08c379a0000000000000000000000000000000000000000000000000000000008152600401808060200182810382526040815260200180613c166040913960400191505060405180910390fd5b6000805473ffffffffffffffffffffffffffffffffffffffff8381167fffffffffffffffffffffffff000000000000000000000000000000000000000083161792839055604080519382168452911660208301819052815190927f8f93286d6f131e956d1aa672d3ecdc817f24efc20b223b0de5d591f454edc34792908290030190a15050565b612efa80610c098339019056fe60806040526001600c5534801561001557600080fd5b506040514690806052612ea88239604080519182900360520182208282018252600d83526c043524f2044656669205377617609c1b6020938401528151808301835260018152603160f81b908401528151808401919091527fa48bada1449373da82f0e667f132d2b1fd6cc7d50959f25c21df1ac50ad3f2c5818301527fc89efdaa54c0f20c7adf612882df0950f5a951637e0307cdcb4c672f298b8bc6606082015260808101949094523060a0808601919091528151808603909101815260c09094019052825192019190912060035550600580546001600160a01b03191633179055612da0806101086000396000f3fe608060405234801561001057600080fd5b50600436106101b95760003560e01c80636a627842116100f9578063ba9a7a5611610097578063d21220a711610071578063d21220a7146105da578063d505accf146105e2578063dd62ed3e14610640578063fff6cae91461067b576101b9565b8063ba9a7a5614610597578063bc25cf771461059f578063c45a0155146105d2576101b9565b80637ecebe00116100d35780637ecebe00146104d757806389afcb441461050a57806395d89b4114610556578063a9059cbb1461055e576101b9565b80636a6278421461046957806370a082311461049c5780637464fc3d146104cf576101b9565b806323b872dd116101665780633644e515116101405780633644e51514610416578063485cc9551461041e5780635909c0d5146104595780635a3d549314610461576101b9565b806323b872dd146103ad57806330adf81f146103f0578063313ce567146103f8576101b9565b8063095ea7b311610197578063095ea7b3146103155780630dfe16811461036257806318160ddd14610393576101b9565b8063022c0d9f146101be57806306fdde03146102595780630902f1ac146102d6575b600080fd5b610257600480360360808110156101d457600080fd5b81359160208101359173ffffffffffffffffffffffffffffffffffffffff604083013516919081019060808101606082013564010000000081111561021857600080fd5b82018360208201111561022a57600080fd5b8035906020019184600183028401116401000000008311171561024c57600080fd5b509092509050610683565b005b610261610def565b6040805160208082528351818301528351919283929083019185019080838360005b8381101561029b578181015183820152602001610283565b50505050905090810190601f1680156102c85780820380516001836020036101000a031916815260200191505b509250505060405180910390f35b6102de610e28565b604080516dffffffffffffffffffffffffffff948516815292909316602083015263ffffffff168183015290519081900360600190f35b61034e6004803603604081101561032b57600080fd5b5073ffffffffffffffffffffffffffffffffffffffff8135169060200135610e7d565b604080519115158252519081900360200190f35b61036a610e94565b6040805173ffffffffffffffffffffffffffffffffffffffff9092168252519081900360200190f35b61039b610eb0565b60408051918252519081900360200190f35b61034e600480360360608110156103c357600080fd5b5073ffffffffffffffffffffffffffffffffffffffff813581169160208101359091169060400135610eb6565b61039b610f95565b610400610fb9565b6040805160ff9092168252519081900360200190f35b61039b610fbe565b6102576004803603604081101561043457600080fd5b5073ffffffffffffffffffffffffffffffffffffffff81358116916020013516610fc4565b61039b61109d565b61039b6110a3565b61039b6004803603602081101561047f57600080fd5b503573ffffffffffffffffffffffffffffffffffffffff166110a9565b61039b600480360360208110156104b257600080fd5b503573ffffffffffffffffffffffffffffffffffffffff16611463565b61039b611475565b61039b600480360360208110156104ed57600080fd5b503573ffffffffffffffffffffffffffffffffffffffff1661147b565b61053d6004803603602081101561052057600080fd5b503573ffffffffffffffffffffffffffffffffffffffff1661148d565b6040805192835260208301919091528051918290030190f35b61026161192a565b61034e6004803603604081101561057457600080fd5b5073ffffffffffffffffffffffffffffffffffffffff8135169060200135611963565b61039b611970565b610257600480360360208110156105b557600080fd5b503573ffffffffffffffffffffffffffffffffffffffff16611976565b61036a611b6c565b61036a611b88565b610257600480360360e08110156105f857600080fd5b5073ffffffffffffffffffffffffffffffffffffffff813581169160208101359091169060408101359060608101359060ff6080820135169060a08101359060c00135611ba4565b61039b6004803603604081101561065657600080fd5b5073ffffffffffffffffffffffffffffffffffffffff81358116916020013516611e70565b610257611e8d565b600c546001146106f457604080517f08c379a000000000000000000000000000000000000000000000000000000000815260206004820152601360248201527f43726f44656669537761703a204c4f434b454400000000000000000000000000604482015290519081900360640190fd5b6000600c55841515806107075750600084115b61075c576040517f08c379a0000000000000000000000000000000000000000000000000000000008152600401808060200182810382526027815260200180612cc06027913960400191505060405180910390fd5b600080610767610e28565b5091509150816dffffffffffffffffffffffffffff168710801561079a5750806dffffffffffffffffffffffffffff1686105b6107ef576040517f08c379a0000000000000000000000000000000000000000000000000000000008152600401808060200182810382526023815260200180612d1f6023913960400191505060405180910390fd5b600654600754600091829173ffffffffffffffffffffffffffffffffffffffff91821691908116908916821480159061085457508073ffffffffffffffffffffffffffffffffffffffff168973ffffffffffffffffffffffffffffffffffffffff1614155b6108bf57604080517f08c379a000000000000000000000000000000000000000000000000000000000815260206004820152601760248201527f43726f44656669537761703a20494e56414c49445f544f000000000000000000604482015290519081900360640190fd5b8a156108d0576108d0828a8d612073565b89156108e1576108e1818a8c612073565b86156109c3578873ffffffffffffffffffffffffffffffffffffffff16636c813d29338d8d8c8c6040518663ffffffff1660e01b8152600401808673ffffffffffffffffffffffffffffffffffffffff1673ffffffffffffffffffffffffffffffffffffffff168152602001858152602001848152602001806020018281038252848482818152602001925080828437600081840152601f19601f8201169050808301925050509650505050505050600060405180830381600087803b1580156109aa57600080fd5b505af11580156109be573d6000803e3d6000fd5b505050505b604080517f70a08231000000000000000000000000000000000000000000000000000000008152306004820152905173ffffffffffffffffffffffffffffffffffffffff8416916370a08231916024808301926020929190829003018186803b158015610a2f57600080fd5b505afa158015610a43573d6000803e3d6000fd5b505050506040513d6020811015610a5957600080fd5b5051604080517f70a08231000000000000000000000000000000000000000000000000000000008152306004820152905191955073ffffffffffffffffffffffffffffffffffffffff8316916370a0823191602480820192602092909190829003018186803b158015610acb57600080fd5b505afa158015610adf573d6000803e3d6000fd5b505050506040513d6020811015610af557600080fd5b5051925060009150506dffffffffffffffffffffffffffff85168a90038311610b1f576000610b35565b89856dffffffffffffffffffffffffffff160383035b9050600089856dffffffffffffffffffffffffffff16038311610b59576000610b6f565b89856dffffffffffffffffffffffffffff160383035b90506000821180610b805750600081115b610bd5576040517f08c379a0000000000000000000000000000000000000000000000000000000008152600401808060200182810382526026815260200180612c706026913960400191505060405180910390fd5b600554604080517fe380f72800000000000000000000000000000000000000000000000000000000815290516127109260009273ffffffffffffffffffffffffffffffffffffffff9091169163e380f72891600480820192602092909190829003018186803b158015610c4757600080fd5b505afa158015610c5b573d6000803e3d6000fd5b505050506040513d6020811015610c7157600080fd5b505190506000610ca6610c8a868463ffffffff61228016565b610c9a898663ffffffff61228016565b9063ffffffff61230616565b90506000610ccd610cbd868563ffffffff61228016565b610c9a898763ffffffff61228016565b9050610d056002850a610cf96dffffffffffffffffffffffffffff8d8116908d1663ffffffff61228016565b9063ffffffff61228016565b610d15838363ffffffff61228016565b1015610d6c576040517f08c379a0000000000000000000000000000000000000000000000000000000008152600401808060200182810382526038815260200180612ce76038913960400191505060405180910390fd5b50505050610d7c84848888612378565b60408051838152602081018390528082018d9052606081018c9052905173ffffffffffffffffffffffffffffffffffffffff8b169133917fd78ad95fa46c994b6551d0da85fc275fe613ce37657fb8d5e3d130840159d8229181900360800190a350506001600c55505050505050505050565b6040518060400160405280600d81526020017f43524f204465666920537761700000000000000000000000000000000000000081525081565b6008546dffffffffffffffffffffffffffff808216926e0100000000000000000000000000008304909116917c0100000000000000000000000000000000000000000000000000000000900463ffffffff1690565b6000610e8a338484612634565b5060015b92915050565b60065473ffffffffffffffffffffffffffffffffffffffff1681565b60005481565b73ffffffffffffffffffffffffffffffffffffffff831660009081526002602090815260408083203384529091528120547fffffffffffffffffffffffffffffffffffffffffffffffffffffffffffffffff14610f805773ffffffffffffffffffffffffffffffffffffffff84166000908152600260209081526040808320338452909152902054610f4e908363ffffffff61230616565b73ffffffffffffffffffffffffffffffffffffffff851660009081526002602090815260408083203384529091529020555b610f8b8484846126a3565b5060019392505050565b7f6e71edae12b1b97f4d1f60370fef10105fa2faae0126114a169c64845d6126c981565b601281565b60035481565b60055473ffffffffffffffffffffffffffffffffffffffff16331461104a57604080517f08c379a000000000000000000000000000000000000000000000000000000000815260206004820152601660248201527f43726f44656669537761703a20464f5242494444454e00000000000000000000604482015290519081900360640190fd5b6006805473ffffffffffffffffffffffffffffffffffffffff9384167fffffffffffffffffffffffff00000000000000000000000000000000000000009182161790915560078054929093169116179055565b60095481565b600a5481565b6000600c5460011461111c57604080517f08c379a000000000000000000000000000000000000000000000000000000000815260206004820152601360248201527f43726f44656669537761703a204c4f434b454400000000000000000000000000604482015290519081900360640190fd5b6000600c8190558061112c610e28565b50600654604080517f70a08231000000000000000000000000000000000000000000000000000000008152306004820152905193955091935060009273ffffffffffffffffffffffffffffffffffffffff909116916370a08231916024808301926020929190829003018186803b1580156111a657600080fd5b505afa1580156111ba573d6000803e3d6000fd5b505050506040513d60208110156111d057600080fd5b5051600754604080517f70a08231000000000000000000000000000000000000000000000000000000008152306004820152905192935060009273ffffffffffffffffffffffffffffffffffffffff909216916370a0823191602480820192602092909190829003018186803b15801561124957600080fd5b505afa15801561125d573d6000803e3d6000fd5b505050506040513d602081101561127357600080fd5b505190506000611299836dffffffffffffffffffffffffffff871663ffffffff61230616565b905060006112bd836dffffffffffffffffffffffffffff871663ffffffff61230616565b905060006112cb8787612784565b60005490915080611308576112f46103e8610c9a6112ef878763ffffffff61228016565b6129b9565b985061130360006103e8612a0b565b611365565b6113626dffffffffffffffffffffffffffff891661132c868463ffffffff61228016565b8161133357fe5b046dffffffffffffffffffffffffffff8916611355868563ffffffff61228016565b8161135c57fe5b04612abb565b98505b600089116113be576040517f08c379a000000000000000000000000000000000000000000000000000000000815260040180806020018281038252602a815260200180612d42602a913960400191505060405180910390fd5b6113c88a8a612a0b565b6113d486868a8a612378565b811561141657600854611412906dffffffffffffffffffffffffffff808216916e01000000000000000000000000000090041663ffffffff61228016565b600b555b6040805185815260208101859052815133927f4c209b5fc8ad50758f13e2e1088ba56a560dff690a1c6fef26394f4c03821c4f928290030190a250506001600c5550949695505050505050565b60016020526000908152604090205481565b600b5481565b60046020526000908152604090205481565b600080600c5460011461150157604080517f08c379a000000000000000000000000000000000000000000000000000000000815260206004820152601360248201527f43726f44656669537761703a204c4f434b454400000000000000000000000000604482015290519081900360640190fd5b6000600c81905580611511610e28565b50600654600754604080517f70a08231000000000000000000000000000000000000000000000000000000008152306004820152905194965092945073ffffffffffffffffffffffffffffffffffffffff9182169391169160009184916370a08231916024808301926020929190829003018186803b15801561159357600080fd5b505afa1580156115a7573d6000803e3d6000fd5b505050506040513d60208110156115bd57600080fd5b5051604080517f70a08231000000000000000000000000000000000000000000000000000000008152306004820152905191925060009173ffffffffffffffffffffffffffffffffffffffff8516916370a08231916024808301926020929190829003018186803b15801561163157600080fd5b505afa158015611645573d6000803e3d6000fd5b505050506040513d602081101561165b57600080fd5b50513060009081526001602052604081205491925061167a8888612784565b60005490915080611691848763ffffffff61228016565b8161169857fe5b049a50806116ac848663ffffffff61228016565b816116b357fe5b04995060008b1180156116c6575060008a115b61171b576040517f08c379a000000000000000000000000000000000000000000000000000000000815260040180806020018281038252602a815260200180612c96602a913960400191505060405180910390fd5b6117253084612ad3565b611730878d8d612073565b61173b868d8c612073565b604080517f70a08231000000000000000000000000000000000000000000000000000000008152306004820152905173ffffffffffffffffffffffffffffffffffffffff8916916370a08231916024808301926020929190829003018186803b1580156117a757600080fd5b505afa1580156117bb573d6000803e3d6000fd5b505050506040513d60208110156117d157600080fd5b5051604080517f70a08231000000000000000000000000000000000000000000000000000000008152306004820152905191965073ffffffffffffffffffffffffffffffffffffffff8816916370a0823191602480820192602092909190829003018186803b15801561184357600080fd5b505afa158015611857573d6000803e3d6000fd5b505050506040513d602081101561186d57600080fd5b5051935061187d85858b8b612378565b81156118bf576008546118bb906dffffffffffffffffffffffffffff808216916e01000000000000000000000000000090041663ffffffff61228016565b600b555b604080518c8152602081018c9052815173ffffffffffffffffffffffffffffffffffffffff8f169233927fdccd412f0b1252819cb1fd330b93224ca42612892bb3f4f789976e6d81936496929081900390910190a35050505050505050506001600c81905550915091565b6040518060400160405280600881526020017f43524f2d5357415000000000000000000000000000000000000000000000000081525081565b6000610e8a3384846126a3565b6103e881565b600c546001146119e757604080517f08c379a000000000000000000000000000000000000000000000000000000000815260206004820152601360248201527f43726f44656669537761703a204c4f434b454400000000000000000000000000604482015290519081900360640190fd5b6000600c55600654600754600854604080517f70a08231000000000000000000000000000000000000000000000000000000008152306004820152905173ffffffffffffffffffffffffffffffffffffffff9485169490931692611ac39285928792611abe926dffffffffffffffffffffffffffff169185916370a0823191602480820192602092909190829003018186803b158015611a8657600080fd5b505afa158015611a9a573d6000803e3d6000fd5b505050506040513d6020811015611ab057600080fd5b50519063ffffffff61230616565b612073565b600854604080517f70a082310000000000000000000000000000000000000000000000000000000081523060048201529051611b629284928792611abe926e01000000000000000000000000000090046dffffffffffffffffffffffffffff169173ffffffffffffffffffffffffffffffffffffffff8616916370a0823191602480820192602092909190829003018186803b158015611a8657600080fd5b50506001600c5550565b60055473ffffffffffffffffffffffffffffffffffffffff1681565b60075473ffffffffffffffffffffffffffffffffffffffff1681565b42841015611c1357604080517f08c379a000000000000000000000000000000000000000000000000000000000815260206004820152601460248201527f43726f44656669537761703a2045585049524544000000000000000000000000604482015290519081900360640190fd5b60035473ffffffffffffffffffffffffffffffffffffffff80891660008181526004602090815260408083208054600180820190925582517f6e71edae12b1b97f4d1f60370fef10105fa2faae0126114a169c64845d6126c98186015280840196909652958d166060860152608085018c905260a085019590955260c08085018b90528151808603909101815260e0850182528051908301207f19010000000000000000000000000000000000000000000000000000000000006101008601526101028501969096526101228085019690965280518085039096018652610142840180825286519683019690962095839052610162840180825286905260ff89166101828501526101a284018890526101c28401879052519193926101e2808201937fffffffffffffffffffffffffffffffffffffffffffffffffffffffffffffffe081019281900390910190855afa158015611d74573d6000803e3d6000fd5b50506040517fffffffffffffffffffffffffffffffffffffffffffffffffffffffffffffffe0015191505073ffffffffffffffffffffffffffffffffffffffff811615801590611def57508873ffffffffffffffffffffffffffffffffffffffff168173ffffffffffffffffffffffffffffffffffffffff16145b611e5a57604080517f08c379a000000000000000000000000000000000000000000000000000000000815260206004820152601e60248201527f43726f44656669537761703a20494e56414c49445f5349474e41545552450000604482015290519081900360640190fd5b611e65898989612634565b505050505050505050565b600260209081526000928352604080842090915290825290205481565b600c54600114611efe57604080517f08c379a000000000000000000000000000000000000000000000000000000000815260206004820152601360248201527f43726f44656669537761703a204c4f434b454400000000000000000000000000604482015290519081900360640190fd5b6000600c55600654604080517f70a08231000000000000000000000000000000000000000000000000000000008152306004820152905161206c9273ffffffffffffffffffffffffffffffffffffffff16916370a08231916024808301926020929190829003018186803b158015611f7557600080fd5b505afa158015611f89573d6000803e3d6000fd5b505050506040513d6020811015611f9f57600080fd5b5051600754604080517f70a08231000000000000000000000000000000000000000000000000000000008152306004820152905173ffffffffffffffffffffffffffffffffffffffff909216916370a0823191602480820192602092909190829003018186803b15801561201257600080fd5b505afa158015612026573d6000803e3d6000fd5b505050506040513d602081101561203c57600080fd5b50516008546dffffffffffffffffffffffffffff808216916e010000000000000000000000000000900416612378565b6001600c55565b604080518082018252601981527f7472616e7366657228616464726573732c75696e743235362900000000000000602091820152815173ffffffffffffffffffffffffffffffffffffffff85811660248301526044808301869052845180840390910181526064909201845291810180517bffffffffffffffffffffffffffffffffffffffffffffffffffffffff167fa9059cbb000000000000000000000000000000000000000000000000000000001781529251815160009460609489169392918291908083835b6020831061217957805182527fffffffffffffffffffffffffffffffffffffffffffffffffffffffffffffffe0909201916020918201910161213c565b6001836020036101000a0380198251168184511680821785525050505050509050019150506000604051808303816000865af19150503d80600081146121db576040519150601f19603f3d011682016040523d82523d6000602084013e6121e0565b606091505b509150915081801561220e57508051158061220e575080806020019051602081101561220b57600080fd5b50515b61227957604080517f08c379a000000000000000000000000000000000000000000000000000000000815260206004820152601c60248201527f43726f44656669537761703a205452414e534645525f4641494c454400000000604482015290519081900360640190fd5b5050505050565b600081158061229b5750508082028282828161229857fe5b04145b610e8e57604080517f08c379a000000000000000000000000000000000000000000000000000000000815260206004820152601460248201527f64732d6d6174682d6d756c2d6f766572666c6f77000000000000000000000000604482015290519081900360640190fd5b80820382811115610e8e57604080517f08c379a000000000000000000000000000000000000000000000000000000000815260206004820152601560248201527f64732d6d6174682d7375622d756e646572666c6f770000000000000000000000604482015290519081900360640190fd5b6dffffffffffffffffffffffffffff84118015906123a457506dffffffffffffffffffffffffffff8311155b61240f57604080517f08c379a000000000000000000000000000000000000000000000000000000000815260206004820152601560248201527f43726f44656669537761703a204f564552464c4f570000000000000000000000604482015290519081900360640190fd5b60085463ffffffff428116917c01000000000000000000000000000000000000000000000000000000009004811682039081161580159061245f57506dffffffffffffffffffffffffffff841615155b801561247a57506dffffffffffffffffffffffffffff831615155b1561252a578063ffffffff166124bd8561249386612b98565b7bffffffffffffffffffffffffffffffffffffffffffffffffffffffff169063ffffffff612bbc16565b600980547bffffffffffffffffffffffffffffffffffffffffffffffffffffffff929092169290920201905563ffffffff81166124fd8461249387612b98565b600a80547bffffffffffffffffffffffffffffffffffffffffffffffffffffffff92909216929092020190555b600880547fffffffffffffffffffffffffffffffffffff0000000000000000000000000000166dffffffffffffffffffffffffffff888116919091177fffffffff0000000000000000000000000000ffffffffffffffffffffffffffff166e0100000000000000000000000000008883168102919091177bffffffffffffffffffffffffffffffffffffffffffffffffffffffff167c010000000000000000000000000000000000000000000000000000000063ffffffff871602179283905560408051848416815291909304909116602082015281517f1c411e9a96e071241c2f21f7726b17ae89e3cab4c78be50e062b03a9fffbbad1929181900390910190a1505050505050565b73ffffffffffffffffffffffffffffffffffffffff808416600081815260026020908152604080832094871680845294825291829020859055815185815291517f8c5be1e5ebec7d5bd14f71427d1e84f3dd0314c0f7b2291e5b200ac8c7c3b9259281900390910190a3505050565b73ffffffffffffffffffffffffffffffffffffffff83166000908152600160205260409020546126d9908263ffffffff61230616565b73ffffffffffffffffffffffffffffffffffffffff808516600090815260016020526040808220939093559084168152205461271b908263ffffffff612bfd16565b73ffffffffffffffffffffffffffffffffffffffff80841660008181526001602090815260409182902094909455805185815290519193928716927fddf252ad1be2c89b69c2b068fc378daa952ba7f163c4a11628f55a4df523b3ef92918290030190a3505050565b600080600560009054906101000a900473ffffffffffffffffffffffffffffffffffffffff1673ffffffffffffffffffffffffffffffffffffffff1663017e7e586040518163ffffffff1660e01b815260040160206040518083038186803b1580156127ef57600080fd5b505afa158015612803573d6000803e3d6000fd5b505050506040513d602081101561281957600080fd5b5051600554604080517fbb44dff3000000000000000000000000000000000000000000000000000000008152905192935060009273ffffffffffffffffffffffffffffffffffffffff9092169163bb44dff391600480820192602092909190829003018186803b15801561288c57600080fd5b505afa1580156128a0573d6000803e3d6000fd5b505050506040513d60208110156128b657600080fd5b5051905073ffffffffffffffffffffffffffffffffffffffff8216158015906128df5750600081115b600b5490935083156129a457801561299f5760006129196112ef6dffffffffffffffffffffffffffff89811690891663ffffffff61228016565b90506000612926836129b9565b90508082111561299c576000612954612945848463ffffffff61230616565b6000549063ffffffff61228016565b905060006129788361296c868963ffffffff61228016565b9063ffffffff612bfd16565b9050600081838161298557fe5b0490508015612998576129988882612a0b565b5050505b50505b6129b0565b80156129b0576000600b555b50505092915050565b600060038211156129fc575080600160028204015b818110156129f6578091506002818285816129e557fe5b0401816129ee57fe5b0490506129ce565b50612a06565b8115612a06575060015b919050565b600054612a1e908263ffffffff612bfd16565b600090815573ffffffffffffffffffffffffffffffffffffffff8316815260016020526040902054612a56908263ffffffff612bfd16565b73ffffffffffffffffffffffffffffffffffffffff831660008181526001602090815260408083209490945583518581529351929391927fddf252ad1be2c89b69c2b068fc378daa952ba7f163c4a11628f55a4df523b3ef9281900390910190a35050565b6000818310612aca5781612acc565b825b9392505050565b73ffffffffffffffffffffffffffffffffffffffff8216600090815260016020526040902054612b09908263ffffffff61230616565b73ffffffffffffffffffffffffffffffffffffffff831660009081526001602052604081209190915554612b43908263ffffffff61230616565b600090815560408051838152905173ffffffffffffffffffffffffffffffffffffffff8516917fddf252ad1be2c89b69c2b068fc378daa952ba7f163c4a11628f55a4df523b3ef919081900360200190a35050565b6dffffffffffffffffffffffffffff166e0100000000000000000000000000000290565b60006dffffffffffffffffffffffffffff82167bffffffffffffffffffffffffffffffffffffffffffffffffffffffff841681612bf557fe5b049392505050565b80820182811015610e8e57604080517f08c379a000000000000000000000000000000000000000000000000000000000815260206004820152601460248201527f64732d6d6174682d6164642d6f766572666c6f77000000000000000000000000604482015290519081900360640190fdfe43726f44656669537761703a20494e53554646494349454e545f494e5055545f414d4f554e5443726f44656669537761703a20494e53554646494349454e545f4c49515549444954595f4255524e454443726f44656669537761703a20494e53554646494349454e545f4f55545055545f414d4f554e5443726f44656669537761703a20436f6e7374616e742070726f6475637420666f726d756c6120636f6e646974696f6e206e6f74206d65742143726f44656669537761703a20494e53554646494349454e545f4c495155494449545943726f44656669537761703a20494e53554646494349454e545f4c49515549444954595f4d494e544544a265627a7a72315820e0bf5e9a8e6c67a20ff71187e36d2bfd9fdbd931b0e9c6643561f972ae35ba5364736f6c63430005100032454950373132446f6d61696e28737472696e67206e616d652c737472696e672076657273696f6e2c75696e7432353620636861696e49642c6164647265737320766572696679696e67436f6e74726163742943726f44656669537761703a20464f5242494444454e202d206f6e6c792063757272656e74206665655365747465722063616e2075706461746520666565546f4261736973506f696e7443726f44656669537761703a20464f5242494444454e202d205f666565546f4261736973506f696e74206e65656420746f20626520736d616c6c6572207468616e206f7220657175616c20746f20746f74616c4665654261736973506f696e7443726f44656669537761703a20464f5242494444454e202d205f746f74616c4665654261736973506f696e7420636f756c64206e6576657220676f206265796f6e64204d41585f455645525f414c4c4f5745445f544f54414c5f4645455f42415349535f504f494e5443726f44656669537761703a20464f5242494444454e202d206f6e6c792063757272656e74206665655365747465722063616e2075706461746520666565546f43726f44656669537761703a20464f5242494444454e202d206f6e6c792063757272656e74206665655365747465722063616e20757064617465206e6578742066656553657474657243726f44656669537761703a20464f5242494444454e202d205f746f74616c4665654261736973506f696e74206e65656420746f20626520626967676572207468616e206f7220657175616c20746f20666565546f4261736973506f696e74a265627a7a723158203dc8f7aca638d1c15356772869f061f36771f3b034132c44b8ecc5ba870cec2364736f6c63430005100032",
  "source": "pragma solidity =0.5.16;\n\nimport './interfaces/ICroDefiSwapFactory.sol';\nimport './CroDefiSwapPair.sol';\n\ncontract CroDefiSwapFactory is ICroDefiSwapFactory {\n    address public feeTo;\n    address public feeSetter;\n    uint public feeToBasisPoint;\n    uint public totalFeeBasisPoint;\n    uint public MAX_EVER_ALLOWED_TOTAL_FEE_BASIS_POINT = 50; // 50 basis points\n\n    mapping(address => mapping(address => address)) public getPair;\n    address[] public allPairs;\n\n    event PairCreated(address indexed token0, address indexed token1, address pair, uint);\n\n    constructor(address _feeSetter, uint _totalFeeBasisPoint, uint _feeToBasisPoint) public {\n        require(_totalFeeBasisPoint>=_feeToBasisPoint, '_totalFeeBasisPoint should be larger than or equal to _feeToBasisPoint');\n        feeSetter = _feeSetter;\n        totalFeeBasisPoint = _totalFeeBasisPoint;\n        feeToBasisPoint = _feeToBasisPoint;\n    }\n\n    function allPairsLength() external view returns (uint) {\n        return allPairs.length;\n    }\n\n    function createPair(address tokenA, address tokenB) external returns (address pair) {\n        require(tokenA != tokenB, 'CroDefiSwap: IDENTICAL_ADDRESSES');\n        (address token0, address token1) = tokenA < tokenB ? (tokenA, tokenB) : (tokenB, tokenA);\n        require(token0 != address(0), 'CroDefiSwap: ZERO_ADDRESS');\n        require(getPair[token0][token1] == address(0), 'CroDefiSwap: PAIR_EXISTS'); // single check is sufficient\n        bytes memory bytecode = type(CroDefiSwapPair).creationCode;\n        bytes32 salt = keccak256(abi.encodePacked(token0, token1));\n        assembly {\n            pair := create2(0, add(bytecode, 32), mload(bytecode), salt)\n        }\n        ICroDefiSwapPair(pair).initialize(token0, token1);\n        getPair[token0][token1] = pair;\n        getPair[token1][token0] = pair; // populate mapping in the reverse direction\n        allPairs.push(pair);\n        emit PairCreated(token0, token1, pair, allPairs.length);\n    }\n\n    function setFeeTo(address _feeTo) external {\n        require(msg.sender == feeSetter, 'CroDefiSwap: FORBIDDEN - only current feeSetter can update feeTo');\n        address previousFeeTo = feeTo;\n        feeTo = _feeTo;\n        emit FeeToUpdated(feeTo, previousFeeTo);\n    }\n\n    function setFeeSetter(address _feeSetter) external {\n        require(msg.sender == feeSetter, 'CroDefiSwap: FORBIDDEN - only current feeSetter can update next feeSetter');\n        address previousFeeSetter = feeSetter;\n        feeSetter = _feeSetter;\n        emit FeeSetterUpdated(feeSetter, previousFeeSetter);\n    }\n\n    function setFeeToBasisPoint(uint _feeToBasisPoint) external {\n        require(msg.sender == feeSetter, 'CroDefiSwap: FORBIDDEN - only current feeSetter can update feeToBasisPoint');\n        require(_feeToBasisPoint >= 0, 'CroDefiSwap: FORBIDDEN - _feeToBasisPoint need to be bigger than or equal to 0');\n        require(_feeToBasisPoint <= totalFeeBasisPoint, 'CroDefiSwap: FORBIDDEN - _feeToBasisPoint need to be smaller than or equal to totalFeeBasisPoint');\n        uint previousFeeToBasisPoint = feeToBasisPoint;\n        feeToBasisPoint = _feeToBasisPoint;\n        emit FeeToBasisPointUpdated(feeToBasisPoint, previousFeeToBasisPoint);\n    }\n\n    function setTotalFeeBasisPoint(uint _totalFeeBasisPoint) external {\n        require(msg.sender == feeSetter, 'CroDefiSwap: FORBIDDEN - only current feeSetter can update feeToBasisPoint');\n        require(_totalFeeBasisPoint >= feeToBasisPoint, 'CroDefiSwap: FORBIDDEN - _totalFeeBasisPoint need to be bigger than or equal to feeToBasisPoint');\n        require(_totalFeeBasisPoint <= MAX_EVER_ALLOWED_TOTAL_FEE_BASIS_POINT, 'CroDefiSwap: FORBIDDEN - _totalFeeBasisPoint could never go beyond MAX_EVER_ALLOWED_TOTAL_FEE_BASIS_POINT');\n        uint previousTotalFeeBasisPoint = totalFeeBasisPoint;\n        totalFeeBasisPoint = _totalFeeBasisPoint;\n        emit TotalFeeBasisPointUpdated(totalFeeBasisPoint, previousTotalFeeBasisPoint);\n    }\n}\n",
  "sourcePath": "/home/dev/c4eiswap/1_swap-contracts-core/contracts/CroDefiSwapFactory.sol",
  "compiler": {
    "name": "solc",
    "version": "0.5.16+commit.9c3226ce.Emscripten.clang"
  },
  "schemaVersion": "3.2.4",
  "updatedAt": "2021-12-27T07:26:31.444Z",
  "networkType": "ethereum",
  "devdoc": {
    "methods": {}
  },
  "userdoc": {
    "methods": {}
  }
}